{
  "contractName": "AceToken",
  "abi": [
    {
      "inputs": [],
      "stateMutability": "nonpayable",
      "type": "constructor"
    },
    {
      "anonymous": false,
      "inputs": [
        {
          "indexed": true,
          "internalType": "address",
          "name": "owner",
          "type": "address"
        },
        {
          "indexed": true,
          "internalType": "address",
          "name": "spender",
          "type": "address"
        },
        {
          "indexed": false,
          "internalType": "uint256",
          "name": "value",
          "type": "uint256"
        }
      ],
      "name": "Approval",
      "type": "event"
    },
    {
      "anonymous": false,
      "inputs": [
        {
          "indexed": true,
          "internalType": "address",
          "name": "previousOwner",
          "type": "address"
        },
        {
          "indexed": true,
          "internalType": "address",
          "name": "newOwner",
          "type": "address"
        }
      ],
      "name": "OwnershipTransferred",
      "type": "event"
    },
    {
      "anonymous": false,
      "inputs": [
        {
          "indexed": false,
          "internalType": "address",
          "name": "account",
          "type": "address"
        }
      ],
      "name": "Paused",
      "type": "event"
    },
    {
      "anonymous": false,
      "inputs": [
        {
          "indexed": true,
          "internalType": "address",
          "name": "from",
          "type": "address"
        },
        {
          "indexed": true,
          "internalType": "address",
          "name": "to",
          "type": "address"
        },
        {
          "indexed": false,
          "internalType": "uint256",
          "name": "value",
          "type": "uint256"
        }
      ],
      "name": "Transfer",
      "type": "event"
    },
    {
      "anonymous": false,
      "inputs": [
        {
          "indexed": false,
          "internalType": "address",
          "name": "account",
          "type": "address"
        }
      ],
      "name": "Unpaused",
      "type": "event"
    },
    {
      "inputs": [
        {
          "internalType": "address",
          "name": "owner",
          "type": "address"
        },
        {
          "internalType": "address",
          "name": "spender",
          "type": "address"
        }
      ],
      "name": "allowance",
      "outputs": [
        {
          "internalType": "uint256",
          "name": "",
          "type": "uint256"
        }
      ],
      "stateMutability": "view",
      "type": "function",
      "constant": true
    },
    {
      "inputs": [
        {
          "internalType": "address",
          "name": "spender",
          "type": "address"
        },
        {
          "internalType": "uint256",
          "name": "amount",
          "type": "uint256"
        }
      ],
      "name": "approve",
      "outputs": [
        {
          "internalType": "bool",
          "name": "",
          "type": "bool"
        }
      ],
      "stateMutability": "nonpayable",
      "type": "function"
    },
    {
      "inputs": [
        {
          "internalType": "address",
          "name": "account",
          "type": "address"
        }
      ],
      "name": "balanceOf",
      "outputs": [
        {
          "internalType": "uint256",
          "name": "",
          "type": "uint256"
        }
      ],
      "stateMutability": "view",
      "type": "function",
      "constant": true
    },
    {
      "inputs": [
        {
          "internalType": "uint256",
          "name": "amount",
          "type": "uint256"
        }
      ],
      "name": "burn",
      "outputs": [],
      "stateMutability": "nonpayable",
      "type": "function"
    },
    {
      "inputs": [
        {
          "internalType": "address",
          "name": "account",
          "type": "address"
        },
        {
          "internalType": "uint256",
          "name": "amount",
          "type": "uint256"
        }
      ],
      "name": "burnFrom",
      "outputs": [],
      "stateMutability": "nonpayable",
      "type": "function"
    },
    {
      "inputs": [],
      "name": "decimals",
      "outputs": [
        {
          "internalType": "uint8",
          "name": "",
          "type": "uint8"
        }
      ],
      "stateMutability": "view",
      "type": "function",
      "constant": true
    },
    {
      "inputs": [
        {
          "internalType": "address",
          "name": "spender",
          "type": "address"
        },
        {
          "internalType": "uint256",
          "name": "subtractedValue",
          "type": "uint256"
        }
      ],
      "name": "decreaseAllowance",
      "outputs": [
        {
          "internalType": "bool",
          "name": "",
          "type": "bool"
        }
      ],
      "stateMutability": "nonpayable",
      "type": "function"
    },
    {
      "inputs": [
        {
          "internalType": "address",
          "name": "spender",
          "type": "address"
        },
        {
          "internalType": "uint256",
          "name": "addedValue",
          "type": "uint256"
        }
      ],
      "name": "increaseAllowance",
      "outputs": [
        {
          "internalType": "bool",
          "name": "",
          "type": "bool"
        }
      ],
      "stateMutability": "nonpayable",
      "type": "function"
    },
    {
      "inputs": [],
      "name": "name",
      "outputs": [
        {
          "internalType": "string",
          "name": "",
          "type": "string"
        }
      ],
      "stateMutability": "view",
      "type": "function",
      "constant": true
    },
    {
      "inputs": [],
      "name": "owner",
      "outputs": [
        {
          "internalType": "address",
          "name": "",
          "type": "address"
        }
      ],
      "stateMutability": "view",
      "type": "function",
      "constant": true
    },
    {
      "inputs": [],
      "name": "paused",
      "outputs": [
        {
          "internalType": "bool",
          "name": "",
          "type": "bool"
        }
      ],
      "stateMutability": "view",
      "type": "function",
      "constant": true
    },
    {
      "inputs": [],
      "name": "renounceOwnership",
      "outputs": [],
      "stateMutability": "nonpayable",
      "type": "function"
    },
    {
      "inputs": [],
      "name": "symbol",
      "outputs": [
        {
          "internalType": "string",
          "name": "",
          "type": "string"
        }
      ],
      "stateMutability": "view",
      "type": "function",
      "constant": true
    },
    {
      "inputs": [],
      "name": "totalSupply",
      "outputs": [
        {
          "internalType": "uint256",
          "name": "",
          "type": "uint256"
        }
      ],
      "stateMutability": "view",
      "type": "function",
      "constant": true
    },
    {
      "inputs": [
        {
          "internalType": "address",
          "name": "recipient",
          "type": "address"
        },
        {
          "internalType": "uint256",
          "name": "amount",
          "type": "uint256"
        }
      ],
      "name": "transfer",
      "outputs": [
        {
          "internalType": "bool",
          "name": "",
          "type": "bool"
        }
      ],
      "stateMutability": "nonpayable",
      "type": "function"
    },
    {
      "inputs": [
        {
          "internalType": "address",
          "name": "sender",
          "type": "address"
        },
        {
          "internalType": "address",
          "name": "recipient",
          "type": "address"
        },
        {
          "internalType": "uint256",
          "name": "amount",
          "type": "uint256"
        }
      ],
      "name": "transferFrom",
      "outputs": [
        {
          "internalType": "bool",
          "name": "",
          "type": "bool"
        }
      ],
      "stateMutability": "nonpayable",
      "type": "function"
    },
    {
      "inputs": [
        {
          "internalType": "address",
          "name": "newOwner",
          "type": "address"
        }
      ],
      "name": "transferOwnership",
      "outputs": [],
      "stateMutability": "nonpayable",
      "type": "function"
    },
    {
      "inputs": [],
      "name": "pause",
      "outputs": [],
      "stateMutability": "nonpayable",
      "type": "function"
    },
    {
      "inputs": [],
      "name": "unpause",
      "outputs": [],
      "stateMutability": "nonpayable",
      "type": "function"
    },
    {
      "inputs": [
        {
          "internalType": "address",
          "name": "to",
          "type": "address"
        },
        {
          "internalType": "uint256",
          "name": "amount",
          "type": "uint256"
        }
      ],
      "name": "mint",
      "outputs": [],
      "stateMutability": "nonpayable",
      "type": "function"
    }
  ],
  "bytecode": "0x60806040523480156200001157600080fd5b506040518060400160405280600981526020017f41636520546f6b656e00000000000000000000000000000000000000000000008152506040518060400160405280600381526020017f4143450000000000000000000000000000000000000000000000000000000000815250816003908051906020019062000096929190620003e7565b508060049080519060200190620000af929190620003e7565b5050506000600560006101000a81548160ff021916908315150217905550620000ed620000e16200010f60201b60201c565b6200011760201b60201c565b620001093369d3c21bcecceda1000000620001dd60201b60201c565b620006b5565b600033905090565b6000600560019054906101000a900473ffffffffffffffffffffffffffffffffffffffff16905081600560016101000a81548173ffffffffffffffffffffffffffffffffffffffff021916908373ffffffffffffffffffffffffffffffffffffffff1602179055508173ffffffffffffffffffffffffffffffffffffffff168173ffffffffffffffffffffffffffffffffffffffff167f8be0079c531659141344cd1fd0a4f28419497f9722a3daafe3b4186f6b6457e060405160405180910390a35050565b600073ffffffffffffffffffffffffffffffffffffffff168273ffffffffffffffffffffffffffffffffffffffff16141562000250576040517f08c379a0000000000000000000000000000000000000000000000000000000008152600401620002479062000518565b60405180910390fd5b62000264600083836200035660201b60201c565b806002600082825462000278919062000568565b92505081905550806000808473ffffffffffffffffffffffffffffffffffffffff1673ffffffffffffffffffffffffffffffffffffffff1681526020019081526020016000206000828254620002cf919062000568565b925050819055508173ffffffffffffffffffffffffffffffffffffffff16600073ffffffffffffffffffffffffffffffffffffffff167fddf252ad1be2c89b69c2b068fc378daa952ba7f163c4a11628f55a4df523b3ef836040516200033691906200053a565b60405180910390a36200035260008383620003c660201b60201c565b5050565b62000366620003cb60201b60201c565b15620003a9576040517f08c379a0000000000000000000000000000000000000000000000000000000008152600401620003a090620004f6565b60405180910390fd5b620003c1838383620003e260201b62000c7a1760201c565b505050565b505050565b6000600560009054906101000a900460ff16905090565b505050565b828054620003f590620005cf565b90600052602060002090601f01602090048101928262000419576000855562000465565b82601f106200043457805160ff191683800117855562000465565b8280016001018555821562000465579182015b828111156200046457825182559160200191906001019062000447565b5b50905062000474919062000478565b5090565b5b808211156200049357600081600090555060010162000479565b5090565b6000620004a660108362000557565b9150620004b38262000663565b602082019050919050565b6000620004cd601f8362000557565b9150620004da826200068c565b602082019050919050565b620004f081620005c5565b82525050565b60006020820190508181036000830152620005118162000497565b9050919050565b600060208201905081810360008301526200053381620004be565b9050919050565b6000602082019050620005516000830184620004e5565b92915050565b600082825260208201905092915050565b60006200057582620005c5565b91506200058283620005c5565b9250827fffffffffffffffffffffffffffffffffffffffffffffffffffffffffffffffff03821115620005ba57620005b962000605565b5b828201905092915050565b6000819050919050565b60006002820490506001821680620005e857607f821691505b60208210811415620005ff57620005fe62000634565b5b50919050565b7f4e487b7100000000000000000000000000000000000000000000000000000000600052601160045260246000fd5b7f4e487b7100000000000000000000000000000000000000000000000000000000600052602260045260246000fd5b7f5061757361626c653a2070617573656400000000000000000000000000000000600082015250565b7f45524332303a206d696e7420746f20746865207a65726f206164647265737300600082015250565b6122e180620006c56000396000f3fe608060405234801561001057600080fd5b506004361061012c5760003560e01c806370a08231116100ad57806395d89b411161007157806395d89b41146102f9578063a457c2d714610317578063a9059cbb14610347578063dd62ed3e14610377578063f2fde38b146103a75761012c565b806370a082311461027b578063715018a6146102ab57806379cc6790146102b55780638456cb59146102d15780638da5cb5b146102db5761012c565b806339509351116100f457806339509351146101eb5780633f4ba83a1461021b57806340c10f191461022557806342966c68146102415780635c975abb1461025d5761012c565b806306fdde0314610131578063095ea7b31461014f57806318160ddd1461017f57806323b872dd1461019d578063313ce567146101cd575b600080fd5b6101396103c3565b6040516101469190611a6d565b60405180910390f35b61016960048036038101906101649190611750565b610455565b6040516101769190611a52565b60405180910390f35b610187610473565b6040516101949190611c6f565b60405180910390f35b6101b760048036038101906101b29190611701565b61047d565b6040516101c49190611a52565b60405180910390f35b6101d5610575565b6040516101e29190611c8a565b60405180910390f35b61020560048036038101906102009190611750565b61057e565b6040516102129190611a52565b60405180910390f35b61022361062a565b005b61023f600480360381019061023a9190611750565b6106b0565b005b61025b6004803603810190610256919061178c565b61073a565b005b61026561074e565b6040516102729190611a52565b60405180910390f35b6102956004803603810190610290919061169c565b610765565b6040516102a29190611c6f565b60405180910390f35b6102b36107ad565b005b6102cf60048036038101906102ca9190611750565b610835565b005b6102d96108b0565b005b6102e3610936565b6040516102f09190611a37565b60405180910390f35b610301610960565b60405161030e9190611a6d565b60405180910390f35b610331600480360381019061032c9190611750565b6109f2565b60405161033e9190611a52565b60405180910390f35b610361600480360381019061035c9190611750565b610add565b60405161036e9190611a52565b60405180910390f35b610391600480360381019061038c91906116c5565b610afb565b60405161039e9190611c6f565b60405180910390f35b6103c160048036038101906103bc919061169c565b610b82565b005b6060600380546103d290611dd3565b80601f01602080910402602001604051908101604052809291908181526020018280546103fe90611dd3565b801561044b5780601f106104205761010080835404028352916020019161044b565b820191906000526020600020905b81548152906001019060200180831161042e57829003601f168201915b5050505050905090565b6000610469610462610c7f565b8484610c87565b6001905092915050565b6000600254905090565b600061048a848484610e52565b6000600160008673ffffffffffffffffffffffffffffffffffffffff1673ffffffffffffffffffffffffffffffffffffffff16815260200190815260200160002060006104d5610c7f565b73ffffffffffffffffffffffffffffffffffffffff1673ffffffffffffffffffffffffffffffffffffffff16815260200190815260200160002054905082811015610555576040517f08c379a000000000000000000000000000000000000000000000000000000000815260040161054c90611b6f565b60405180910390fd5b61056985610561610c7f565b858403610c87565b60019150509392505050565b60006012905090565b600061062061058b610c7f565b848460016000610599610c7f565b73ffffffffffffffffffffffffffffffffffffffff1673ffffffffffffffffffffffffffffffffffffffff16815260200190815260200160002060008873ffffffffffffffffffffffffffffffffffffffff1673ffffffffffffffffffffffffffffffffffffffff1681526020019081526020016000205461061b9190611cc1565b610c87565b6001905092915050565b610632610c7f565b73ffffffffffffffffffffffffffffffffffffffff16610650610936565b73ffffffffffffffffffffffffffffffffffffffff16146106a6576040517f08c379a000000000000000000000000000000000000000000000000000000000815260040161069d90611b8f565b60405180910390fd5b6106ae6110d3565b565b6106b8610c7f565b73ffffffffffffffffffffffffffffffffffffffff166106d6610936565b73ffffffffffffffffffffffffffffffffffffffff161461072c576040517f08c379a000000000000000000000000000000000000000000000000000000000815260040161072390611b8f565b60405180910390fd5b6107368282611175565b5050565b61074b610745610c7f565b826112d5565b50565b6000600560009054906101000a900460ff16905090565b60008060008373ffffffffffffffffffffffffffffffffffffffff1673ffffffffffffffffffffffffffffffffffffffff168152602001908152602001600020549050919050565b6107b5610c7f565b73ffffffffffffffffffffffffffffffffffffffff166107d3610936565b73ffffffffffffffffffffffffffffffffffffffff1614610829576040517f08c379a000000000000000000000000000000000000000000000000000000000815260040161082090611b8f565b60405180910390fd5b61083360006114ac565b565b600061084883610843610c7f565b610afb565b90508181101561088d576040517f08c379a000000000000000000000000000000000000000000000000000000000815260040161088490611baf565b60405180910390fd5b6108a183610899610c7f565b848403610c87565b6108ab83836112d5565b505050565b6108b8610c7f565b73ffffffffffffffffffffffffffffffffffffffff166108d6610936565b73ffffffffffffffffffffffffffffffffffffffff161461092c576040517f08c379a000000000000000000000000000000000000000000000000000000000815260040161092390611b8f565b60405180910390fd5b610934611572565b565b6000600560019054906101000a900473ffffffffffffffffffffffffffffffffffffffff16905090565b60606004805461096f90611dd3565b80601f016020809104026020016040519081016040528092919081815260200182805461099b90611dd3565b80156109e85780601f106109bd576101008083540402835291602001916109e8565b820191906000526020600020905b8154815290600101906020018083116109cb57829003601f168201915b5050505050905090565b60008060016000610a01610c7f565b73ffffffffffffffffffffffffffffffffffffffff1673ffffffffffffffffffffffffffffffffffffffff16815260200190815260200160002060008573ffffffffffffffffffffffffffffffffffffffff1673ffffffffffffffffffffffffffffffffffffffff16815260200190815260200160002054905082811015610abe576040517f08c379a0000000000000000000000000000000000000000000000000000000008152600401610ab590611c2f565b60405180910390fd5b610ad2610ac9610c7f565b85858403610c87565b600191505092915050565b6000610af1610aea610c7f565b8484610e52565b6001905092915050565b6000600160008473ffffffffffffffffffffffffffffffffffffffff1673ffffffffffffffffffffffffffffffffffffffff16815260200190815260200160002060008373ffffffffffffffffffffffffffffffffffffffff1673ffffffffffffffffffffffffffffffffffffffff16815260200190815260200160002054905092915050565b610b8a610c7f565b73ffffffffffffffffffffffffffffffffffffffff16610ba8610936565b73ffffffffffffffffffffffffffffffffffffffff1614610bfe576040517f08c379a0000000000000000000000000000000000000000000000000000000008152600401610bf590611b8f565b60405180910390fd5b600073ffffffffffffffffffffffffffffffffffffffff168173ffffffffffffffffffffffffffffffffffffffff161415610c6e576040517f08c379a0000000000000000000000000000000000000000000000000000000008152600401610c6590611aef565b60405180910390fd5b610c77816114ac565b50565b505050565b600033905090565b600073ffffffffffffffffffffffffffffffffffffffff168373ffffffffffffffffffffffffffffffffffffffff161415610cf7576040517f08c379a0000000000000000000000000000000000000000000000000000000008152600401610cee90611c0f565b60405180910390fd5b600073ffffffffffffffffffffffffffffffffffffffff168273ffffffffffffffffffffffffffffffffffffffff161415610d67576040517f08c379a0000000000000000000000000000000000000000000000000000000008152600401610d5e90611b0f565b60405180910390fd5b80600160008573ffffffffffffffffffffffffffffffffffffffff1673ffffffffffffffffffffffffffffffffffffffff16815260200190815260200160002060008473ffffffffffffffffffffffffffffffffffffffff1673ffffffffffffffffffffffffffffffffffffffff168152602001908152602001600020819055508173ffffffffffffffffffffffffffffffffffffffff168373ffffffffffffffffffffffffffffffffffffffff167f8c5be1e5ebec7d5bd14f71427d1e84f3dd0314c0f7b2291e5b200ac8c7c3b92583604051610e459190611c6f565b60405180910390a3505050565b600073ffffffffffffffffffffffffffffffffffffffff168373ffffffffffffffffffffffffffffffffffffffff161415610ec2576040517f08c379a0000000000000000000000000000000000000000000000000000000008152600401610eb990611bef565b60405180910390fd5b600073ffffffffffffffffffffffffffffffffffffffff168273ffffffffffffffffffffffffffffffffffffffff161415610f32576040517f08c379a0000000000000000000000000000000000000000000000000000000008152600401610f2990611a8f565b60405180910390fd5b610f3d838383611615565b60008060008573ffffffffffffffffffffffffffffffffffffffff1673ffffffffffffffffffffffffffffffffffffffff16815260200190815260200160002054905081811015610fc3576040517f08c379a0000000000000000000000000000000000000000000000000000000008152600401610fba90611b2f565b60405180910390fd5b8181036000808673ffffffffffffffffffffffffffffffffffffffff1673ffffffffffffffffffffffffffffffffffffffff16815260200190815260200160002081905550816000808573ffffffffffffffffffffffffffffffffffffffff1673ffffffffffffffffffffffffffffffffffffffff16815260200190815260200160002060008282546110569190611cc1565b925050819055508273ffffffffffffffffffffffffffffffffffffffff168473ffffffffffffffffffffffffffffffffffffffff167fddf252ad1be2c89b69c2b068fc378daa952ba7f163c4a11628f55a4df523b3ef846040516110ba9190611c6f565b60405180910390a36110cd84848461166d565b50505050565b6110db61074e565b61111a576040517f08c379a000000000000000000000000000000000000000000000000000000000815260040161111190611aaf565b60405180910390fd5b6000600560006101000a81548160ff0219169083151502179055507f5db9ee0a495bf2e6ff9c91a7834c1ba4fdd244a5e8aa4e537bd38aeae4b073aa61115e610c7f565b60405161116b9190611a37565b60405180910390a1565b600073ffffffffffffffffffffffffffffffffffffffff168273ffffffffffffffffffffffffffffffffffffffff1614156111e5576040517f08c379a00000000000000000000000000000000000000000000000000000000081526004016111dc90611c4f565b60405180910390fd5b6111f160008383611615565b80600260008282546112039190611cc1565b92505081905550806000808473ffffffffffffffffffffffffffffffffffffffff1673ffffffffffffffffffffffffffffffffffffffff16815260200190815260200160002060008282546112589190611cc1565b925050819055508173ffffffffffffffffffffffffffffffffffffffff16600073ffffffffffffffffffffffffffffffffffffffff167fddf252ad1be2c89b69c2b068fc378daa952ba7f163c4a11628f55a4df523b3ef836040516112bd9190611c6f565b60405180910390a36112d16000838361166d565b5050565b600073ffffffffffffffffffffffffffffffffffffffff168273ffffffffffffffffffffffffffffffffffffffff161415611345576040517f08c379a000000000000000000000000000000000000000000000000000000000815260040161133c90611bcf565b60405180910390fd5b61135182600083611615565b60008060008473ffffffffffffffffffffffffffffffffffffffff1673ffffffffffffffffffffffffffffffffffffffff168152602001908152602001600020549050818110156113d7576040517f08c379a00000000000000000000000000000000000000000000000000000000081526004016113ce90611acf565b60405180910390fd5b8181036000808573ffffffffffffffffffffffffffffffffffffffff1673ffffffffffffffffffffffffffffffffffffffff16815260200190815260200160002081905550816002600082825461142e9190611d17565b92505081905550600073ffffffffffffffffffffffffffffffffffffffff168373ffffffffffffffffffffffffffffffffffffffff167fddf252ad1be2c89b69c2b068fc378daa952ba7f163c4a11628f55a4df523b3ef846040516114939190611c6f565b60405180910390a36114a78360008461166d565b505050565b6000600560019054906101000a900473ffffffffffffffffffffffffffffffffffffffff16905081600560016101000a81548173ffffffffffffffffffffffffffffffffffffffff021916908373ffffffffffffffffffffffffffffffffffffffff1602179055508173ffffffffffffffffffffffffffffffffffffffff168173ffffffffffffffffffffffffffffffffffffffff167f8be0079c531659141344cd1fd0a4f28419497f9722a3daafe3b4186f6b6457e060405160405180910390a35050565b61157a61074e565b156115ba576040517f08c379a00000000000000000000000000000000000000000000000000000000081526004016115b190611b4f565b60405180910390fd5b6001600560006101000a81548160ff0219169083151502179055507f62e78cea01bee320cd4e420270b5ea74000d11b0c9f74754ebdbfc544b05a2586115fe610c7f565b60405161160b9190611a37565b60405180910390a1565b61161d61074e565b1561165d576040517f08c379a000000000000000000000000000000000000000000000000000000000815260040161165490611b4f565b60405180910390fd5b611668838383610c7a565b505050565b505050565b6000813590506116818161227d565b92915050565b60008135905061169681612294565b92915050565b6000602082840312156116ae57600080fd5b60006116bc84828501611672565b91505092915050565b600080604083850312156116d857600080fd5b60006116e685828601611672565b92505060206116f785828601611672565b9150509250929050565b60008060006060848603121561171657600080fd5b600061172486828701611672565b935050602061173586828701611672565b925050604061174686828701611687565b9150509250925092565b6000806040838503121561176357600080fd5b600061177185828601611672565b925050602061178285828601611687565b9150509250929050565b60006020828403121561179e57600080fd5b60006117ac84828501611687565b91505092915050565b6117be81611d4b565b82525050565b6117cd81611d5d565b82525050565b60006117de82611ca5565b6117e88185611cb0565b93506117f8818560208601611da0565b61180181611e63565b840191505092915050565b6000611819602383611cb0565b915061182482611e74565b604082019050919050565b600061183c601483611cb0565b915061184782611ec3565b602082019050919050565b600061185f602283611cb0565b915061186a82611eec565b604082019050919050565b6000611882602683611cb0565b915061188d82611f3b565b604082019050919050565b60006118a5602283611cb0565b91506118b082611f8a565b604082019050919050565b60006118c8602683611cb0565b91506118d382611fd9565b604082019050919050565b60006118eb601083611cb0565b91506118f682612028565b602082019050919050565b600061190e602883611cb0565b915061191982612051565b604082019050919050565b6000611931602083611cb0565b915061193c826120a0565b602082019050919050565b6000611954602483611cb0565b915061195f826120c9565b604082019050919050565b6000611977602183611cb0565b915061198282612118565b604082019050919050565b600061199a602583611cb0565b91506119a582612167565b604082019050919050565b60006119bd602483611cb0565b91506119c8826121b6565b604082019050919050565b60006119e0602583611cb0565b91506119eb82612205565b604082019050919050565b6000611a03601f83611cb0565b9150611a0e82612254565b602082019050919050565b611a2281611d89565b82525050565b611a3181611d93565b82525050565b6000602082019050611a4c60008301846117b5565b92915050565b6000602082019050611a6760008301846117c4565b92915050565b60006020820190508181036000830152611a8781846117d3565b905092915050565b60006020820190508181036000830152611aa88161180c565b9050919050565b60006020820190508181036000830152611ac88161182f565b9050919050565b60006020820190508181036000830152611ae881611852565b9050919050565b60006020820190508181036000830152611b0881611875565b9050919050565b60006020820190508181036000830152611b2881611898565b9050919050565b60006020820190508181036000830152611b48816118bb565b9050919050565b60006020820190508181036000830152611b68816118de565b9050919050565b60006020820190508181036000830152611b8881611901565b9050919050565b60006020820190508181036000830152611ba881611924565b9050919050565b60006020820190508181036000830152611bc881611947565b9050919050565b60006020820190508181036000830152611be88161196a565b9050919050565b60006020820190508181036000830152611c088161198d565b9050919050565b60006020820190508181036000830152611c28816119b0565b9050919050565b60006020820190508181036000830152611c48816119d3565b9050919050565b60006020820190508181036000830152611c68816119f6565b9050919050565b6000602082019050611c846000830184611a19565b92915050565b6000602082019050611c9f6000830184611a28565b92915050565b600081519050919050565b600082825260208201905092915050565b6000611ccc82611d89565b9150611cd783611d89565b9250827fffffffffffffffffffffffffffffffffffffffffffffffffffffffffffffffff03821115611d0c57611d0b611e05565b5b828201905092915050565b6000611d2282611d89565b9150611d2d83611d89565b925082821015611d4057611d3f611e05565b5b828203905092915050565b6000611d5682611d69565b9050919050565b60008115159050919050565b600073ffffffffffffffffffffffffffffffffffffffff82169050919050565b6000819050919050565b600060ff82169050919050565b60005b83811015611dbe578082015181840152602081019050611da3565b83811115611dcd576000848401525b50505050565b60006002820490506001821680611deb57607f821691505b60208210811415611dff57611dfe611e34565b5b50919050565b7f4e487b7100000000000000000000000000000000000000000000000000000000600052601160045260246000fd5b7f4e487b7100000000000000000000000000000000000000000000000000000000600052602260045260246000fd5b6000601f19601f8301169050919050565b7f45524332303a207472616e7366657220746f20746865207a65726f206164647260008201527f6573730000000000000000000000000000000000000000000000000000000000602082015250565b7f5061757361626c653a206e6f7420706175736564000000000000000000000000600082015250565b7f45524332303a206275726e20616d6f756e7420657863656564732062616c616e60008201527f6365000000000000000000000000000000000000000000000000000000000000602082015250565b7f4f776e61626c653a206e6577206f776e657220697320746865207a65726f206160008201527f6464726573730000000000000000000000000000000000000000000000000000602082015250565b7f45524332303a20617070726f766520746f20746865207a65726f20616464726560008201527f7373000000000000000000000000000000000000000000000000000000000000602082015250565b7f45524332303a207472616e7366657220616d6f756e742065786365656473206260008201527f616c616e63650000000000000000000000000000000000000000000000000000602082015250565b7f5061757361626c653a2070617573656400000000000000000000000000000000600082015250565b7f45524332303a207472616e7366657220616d6f756e742065786365656473206160008201527f6c6c6f77616e6365000000000000000000000000000000000000000000000000602082015250565b7f4f776e61626c653a2063616c6c6572206973206e6f7420746865206f776e6572600082015250565b7f45524332303a206275726e20616d6f756e74206578636565647320616c6c6f7760008201527f616e636500000000000000000000000000000000000000000000000000000000602082015250565b7f45524332303a206275726e2066726f6d20746865207a65726f2061646472657360008201527f7300000000000000000000000000000000000000000000000000000000000000602082015250565b7f45524332303a207472616e736665722066726f6d20746865207a65726f20616460008201527f6472657373000000000000000000000000000000000000000000000000000000602082015250565b7f45524332303a20617070726f76652066726f6d20746865207a65726f2061646460008201527f7265737300000000000000000000000000000000000000000000000000000000602082015250565b7f45524332303a2064656372656173656420616c6c6f77616e63652062656c6f7760008201527f207a65726f000000000000000000000000000000000000000000000000000000602082015250565b7f45524332303a206d696e7420746f20746865207a65726f206164647265737300600082015250565b61228681611d4b565b811461229157600080fd5b50565b61229d81611d89565b81146122a857600080fd5b5056fea264697066735822122023768a187e3a35f40aa5838bbb7b22c1f81b0bebccb9b250946c91cab1c8050064736f6c63430008020033",
  "immutableReferences": {},
  "source": "// SPDX-License-Identifier: MIT\npragma solidity 0.8.2;\n\nimport \"@openzeppelin/contracts/token/ERC20/ERC20.sol\";\nimport \"@openzeppelin/contracts/token/ERC20/extensions/ERC20Burnable.sol\";\nimport \"@openzeppelin/contracts/security/Pausable.sol\";\nimport \"@openzeppelin/contracts/access/Ownable.sol\";\n\n\n/// @title Contract for ACE Token\n/// @author Alfred Varghese Jose\n/// @notice Create an ERC20 token for Ace Token Farm Dapp\n/// @dev ERC20 Token is created using the OpenZeppelin contracts\ncontract AceToken is ERC20, ERC20Burnable, Pausable, Ownable {\n    constructor() ERC20(\"Ace Token\", \"ACE\") {\n        _mint(msg.sender, 1000000 * 10 ** 18);\n    }\n\n    function pause() public onlyOwner {\n        _pause();\n    }\n\n    function unpause() public onlyOwner {\n        _unpause();\n    }\n\n    function mint(address to, uint256 amount) public onlyOwner {\n        _mint(to, amount);\n    }\n\n    function _beforeTokenTransfer(address from, address to, uint256 amount)\n        internal\n        whenNotPaused\n        override\n    {\n        super._beforeTokenTransfer(from, to, amount);\n    }\n}",
  "sourcePath": "/home/avj17/Consensys/Final Project/blockchain-developer-bootcamp-final-project/src/contracts/AceToken.sol",
  "compiler": {
    "name": "solc",
    "version": "0.8.2+commit.661d1103.Emscripten.clang"
  },
  "schemaVersion": "3.4.3",
  "updatedAt": "2021-11-30T07:59:26.743Z",
  "networkType": "ethereum",
  "devdoc": {
    "author": "Alfred Varghese Jose",
    "details": "ERC20 Token is created using the OpenZeppelin contracts",
    "kind": "dev",
    "methods": {
      "allowance(address,address)": {
        "details": "See {IERC20-allowance}."
      },
      "approve(address,uint256)": {
        "details": "See {IERC20-approve}. Requirements: - `spender` cannot be the zero address."
      },
      "balanceOf(address)": {
        "details": "See {IERC20-balanceOf}."
      },
      "burn(uint256)": {
        "details": "Destroys `amount` tokens from the caller. See {ERC20-_burn}."
      },
      "burnFrom(address,uint256)": {
        "details": "Destroys `amount` tokens from `account`, deducting from the caller's allowance. See {ERC20-_burn} and {ERC20-allowance}. Requirements: - the caller must have allowance for ``accounts``'s tokens of at least `amount`."
      },
      "decimals()": {
        "details": "Returns the number of decimals used to get its user representation. For example, if `decimals` equals `2`, a balance of `505` tokens should be displayed to a user as `5.05` (`505 / 10 ** 2`). Tokens usually opt for a value of 18, imitating the relationship between Ether and Wei. This is the value {ERC20} uses, unless this function is overridden; NOTE: This information is only used for _display_ purposes: it in no way affects any of the arithmetic of the contract, including {IERC20-balanceOf} and {IERC20-transfer}."
      },
      "decreaseAllowance(address,uint256)": {
        "details": "Atomically decreases the allowance granted to `spender` by the caller. This is an alternative to {approve} that can be used as a mitigation for problems described in {IERC20-approve}. Emits an {Approval} event indicating the updated allowance. Requirements: - `spender` cannot be the zero address. - `spender` must have allowance for the caller of at least `subtractedValue`."
      },
      "increaseAllowance(address,uint256)": {
        "details": "Atomically increases the allowance granted to `spender` by the caller. This is an alternative to {approve} that can be used as a mitigation for problems described in {IERC20-approve}. Emits an {Approval} event indicating the updated allowance. Requirements: - `spender` cannot be the zero address."
      },
      "name()": {
        "details": "Returns the name of the token."
      },
      "owner()": {
        "details": "Returns the address of the current owner."
      },
      "paused()": {
        "details": "Returns true if the contract is paused, and false otherwise."
      },
      "renounceOwnership()": {
        "details": "Leaves the contract without owner. It will not be possible to call `onlyOwner` functions anymore. Can only be called by the current owner. NOTE: Renouncing ownership will leave the contract without an owner, thereby removing any functionality that is only available to the owner."
      },
      "symbol()": {
        "details": "Returns the symbol of the token, usually a shorter version of the name."
      },
      "totalSupply()": {
        "details": "See {IERC20-totalSupply}."
      },
      "transfer(address,uint256)": {
        "details": "See {IERC20-transfer}. Requirements: - `recipient` cannot be the zero address. - the caller must have a balance of at least `amount`."
      },
      "transferFrom(address,address,uint256)": {
        "details": "See {IERC20-transferFrom}. Emits an {Approval} event indicating the updated allowance. This is not required by the EIP. See the note at the beginning of {ERC20}. Requirements: - `sender` and `recipient` cannot be the zero address. - `sender` must have a balance of at least `amount`. - the caller must have allowance for ``sender``'s tokens of at least `amount`."
      },
      "transferOwnership(address)": {
        "details": "Transfers ownership of the contract to a new account (`newOwner`). Can only be called by the current owner."
      }
    },
    "title": "Contract for ACE Token",
    "version": 1
  },
  "userdoc": {
    "kind": "user",
    "methods": {},
    "notice": "Create an ERC20 token for Ace Token Farm Dapp",
    "version": 1
  }
}