{
  "contractName": "TokenFarm",
  "abi": [
    {
      "inputs": [
        {
          "internalType": "contract AceToken",
          "name": "_aceToken",
          "type": "address"
        }
      ],
      "stateMutability": "nonpayable",
      "type": "constructor"
    },
    {
      "inputs": [],
      "name": "aceToken",
      "outputs": [
        {
          "internalType": "contract AceToken",
          "name": "",
          "type": "address"
        }
      ],
      "stateMutability": "view",
      "type": "function",
      "constant": true
    },
    {
      "inputs": [
        {
          "internalType": "address",
          "name": "",
          "type": "address"
        }
      ],
      "name": "hasStaked",
      "outputs": [
        {
          "internalType": "bool",
          "name": "",
          "type": "bool"
        }
      ],
      "stateMutability": "view",
      "type": "function",
      "constant": true
    },
    {
      "inputs": [
        {
          "internalType": "address",
          "name": "",
          "type": "address"
        }
      ],
      "name": "isStaking",
      "outputs": [
        {
          "internalType": "bool",
          "name": "",
          "type": "bool"
        }
      ],
      "stateMutability": "view",
      "type": "function",
      "constant": true
    },
    {
      "inputs": [],
      "name": "name",
      "outputs": [
        {
          "internalType": "string",
          "name": "",
          "type": "string"
        }
      ],
      "stateMutability": "view",
      "type": "function",
      "constant": true
    },
    {
      "inputs": [],
      "name": "owner",
      "outputs": [
        {
          "internalType": "address",
          "name": "",
          "type": "address"
        }
      ],
      "stateMutability": "view",
      "type": "function",
      "constant": true
    },
    {
      "inputs": [
        {
          "internalType": "uint256",
          "name": "",
          "type": "uint256"
        }
      ],
      "name": "stakers",
      "outputs": [
        {
          "internalType": "address",
          "name": "",
          "type": "address"
        }
      ],
      "stateMutability": "view",
      "type": "function",
      "constant": true
    },
    {
      "inputs": [
        {
          "internalType": "address",
          "name": "",
          "type": "address"
        }
      ],
      "name": "stakingBalance",
      "outputs": [
        {
          "internalType": "uint256",
          "name": "",
          "type": "uint256"
        }
      ],
      "stateMutability": "view",
      "type": "function",
      "constant": true
    },
    {
      "inputs": [],
      "name": "issueTokens",
      "outputs": [],
      "stateMutability": "nonpayable",
      "type": "function"
    },
    {
      "inputs": [],
      "name": "sendEther",
      "outputs": [],
      "stateMutability": "nonpayable",
      "type": "function"
    },
    {
      "inputs": [],
      "name": "recieveEther",
      "outputs": [],
      "stateMutability": "payable",
      "type": "function",
      "payable": true
    },
    {
      "inputs": [],
      "name": "showBalance",
      "outputs": [
        {
          "internalType": "uint256",
          "name": "",
          "type": "uint256"
        }
      ],
      "stateMutability": "view",
      "type": "function",
      "constant": true
    }
  ],
  "bytecode": "0x60806040526040518060400160405280600f81526020017f4461707020546f6b656e204661726d000000000000000000000000000000000081525060009080519060200190620000519291906200010e565b503480156200005f57600080fd5b50604051620012003803806200120083398181016040528101906200008591906200023c565b80600260006101000a81548173ffffffffffffffffffffffffffffffffffffffff021916908373ffffffffffffffffffffffffffffffffffffffff16021790555033600160006101000a81548173ffffffffffffffffffffffffffffffffffffffff021916908373ffffffffffffffffffffffffffffffffffffffff16021790555050620002d3565b8280546200011c906200029d565b90600052602060002090601f0160209004810192826200014057600085556200018c565b82601f106200015b57805160ff19168380011785556200018c565b828001600101855582156200018c579182015b828111156200018b5782518255916020019190600101906200016e565b5b5090506200019b91906200019f565b5090565b5b80821115620001ba576000816000905550600101620001a0565b5090565b600080fd5b600073ffffffffffffffffffffffffffffffffffffffff82169050919050565b6000620001f082620001c3565b9050919050565b60006200020482620001e3565b9050919050565b6200021681620001f7565b81146200022257600080fd5b50565b60008151905062000236816200020b565b92915050565b600060208284031215620002555762000254620001be565b5b6000620002658482850162000225565b91505092915050565b7f4e487b7100000000000000000000000000000000000000000000000000000000600052602260045260246000fd5b60006002820490506001821680620002b657607f821691505b60208210811415620002cd57620002cc6200026e565b5b50919050565b610f1d80620002e36000396000f3fe60806040526004361061009c5760003560e01c806381b2d07b1161006457806381b2d07b146101745780638da5cb5b1461019f5780638f4062d7146101ca578063958285a1146101d4578063c93c8f34146101ff578063fd5e6dd11461023c5761009c565b806306fdde03146100a15780630e29df22146100cc57806345bc78ab146100e357806360ab5852146101205780636f49712b14610137575b600080fd5b3480156100ad57600080fd5b506100b6610279565b6040516100c39190610a82565b60405180910390f35b3480156100d857600080fd5b506100e1610307565b005b3480156100ef57600080fd5b5061010a60048036038101906101059190610b07565b610477565b6040516101179190610b4d565b60405180910390f35b34801561012c57600080fd5b5061013561048f565b005b34801561014357600080fd5b5061015e60048036038101906101599190610b07565b610679565b60405161016b9190610b83565b60405180910390f35b34801561018057600080fd5b50610189610699565b6040516101969190610b4d565b60405180910390f35b3480156101ab57600080fd5b506101b46106e0565b6040516101c19190610bad565b60405180910390f35b6101d2610706565b005b3480156101e057600080fd5b506101e9610964565b6040516101f69190610c27565b60405180910390f35b34801561020b57600080fd5b5061022660048036038101906102219190610b07565b61098a565b6040516102339190610b83565b60405180910390f35b34801561024857600080fd5b50610263600480360381019061025e9190610c6e565b6109aa565b6040516102709190610bad565b60405180910390f35b6000805461028690610cca565b80601f01602080910402602001604051908101604052809291908181526020018280546102b290610cca565b80156102ff5780601f106102d4576101008083540402835291602001916102ff565b820191906000526020600020905b8154815290600101906020018083116102e257829003601f168201915b505050505081565b6000600460003373ffffffffffffffffffffffffffffffffffffffff1673ffffffffffffffffffffffffffffffffffffffff1681526020019081526020016000205490506000600460003373ffffffffffffffffffffffffffffffffffffffff1673ffffffffffffffffffffffffffffffffffffffff168152602001908152602001600020819055503373ffffffffffffffffffffffffffffffffffffffff166108fc829081150290604051600060405180830381858888f193505050501580156103d6573d6000803e3d6000fd5b506000600460003373ffffffffffffffffffffffffffffffffffffffff1673ffffffffffffffffffffffffffffffffffffffff168152602001908152602001600020819055506000600660003373ffffffffffffffffffffffffffffffffffffffff1673ffffffffffffffffffffffffffffffffffffffff16815260200190815260200160002060006101000a81548160ff02191690831515021790555050565b60046020528060005260406000206000915090505481565b600160009054906101000a900473ffffffffffffffffffffffffffffffffffffffff1673ffffffffffffffffffffffffffffffffffffffff163373ffffffffffffffffffffffffffffffffffffffff161461051f576040517f08c379a000000000000000000000000000000000000000000000000000000000815260040161051690610d48565b60405180910390fd5b60005b6003805490508110156106765760006003828154811061054557610544610d68565b5b9060005260206000200160009054906101000a900473ffffffffffffffffffffffffffffffffffffffff1690506000600460008373ffffffffffffffffffffffffffffffffffffffff1673ffffffffffffffffffffffffffffffffffffffff168152602001908152602001600020549050600081111561066157600260009054906101000a900473ffffffffffffffffffffffffffffffffffffffff1673ffffffffffffffffffffffffffffffffffffffff1663a9059cbb83836040518363ffffffff1660e01b815260040161061c929190610d97565b6020604051808303816000875af115801561063b573d6000803e3d6000fd5b505050506040513d601f19601f8201168201806040525081019061065f9190610dec565b505b5050808061066e90610e48565b915050610522565b50565b60066020528060005260406000206000915054906101000a900460ff1681565b6000600460003373ffffffffffffffffffffffffffffffffffffffff1673ffffffffffffffffffffffffffffffffffffffff16815260200190815260200160002054905090565b600160009054906101000a900473ffffffffffffffffffffffffffffffffffffffff1681565b34600460003373ffffffffffffffffffffffffffffffffffffffff1673ffffffffffffffffffffffffffffffffffffffff16815260200190815260200160002060008282546107559190610e91565b92505081905550600560003373ffffffffffffffffffffffffffffffffffffffff1673ffffffffffffffffffffffffffffffffffffffff16815260200190815260200160002060009054906101000a900460ff16610811576003339080600181540180825580915050600190039060005260206000200160009091909190916101000a81548173ffffffffffffffffffffffffffffffffffffffff021916908373ffffffffffffffffffffffffffffffffffffffff1602179055505b6001600660003373ffffffffffffffffffffffffffffffffffffffff1673ffffffffffffffffffffffffffffffffffffffff16815260200190815260200160002060006101000a81548160ff0219169083151502179055506001600560003373ffffffffffffffffffffffffffffffffffffffff1673ffffffffffffffffffffffffffffffffffffffff16815260200190815260200160002060006101000a81548160ff021916908315150217905550600260009054906101000a900473ffffffffffffffffffffffffffffffffffffffff1673ffffffffffffffffffffffffffffffffffffffff1663a9059cbb33346040518363ffffffff1660e01b815260040161091e929190610d97565b6020604051808303816000875af115801561093d573d6000803e3d6000fd5b505050506040513d601f19601f820116820180604052508101906109619190610dec565b50565b600260009054906101000a900473ffffffffffffffffffffffffffffffffffffffff1681565b60056020528060005260406000206000915054906101000a900460ff1681565b600381815481106109ba57600080fd5b906000526020600020016000915054906101000a900473ffffffffffffffffffffffffffffffffffffffff1681565b600081519050919050565b600082825260208201905092915050565b60005b83811015610a23578082015181840152602081019050610a08565b83811115610a32576000848401525b50505050565b6000601f19601f8301169050919050565b6000610a54826109e9565b610a5e81856109f4565b9350610a6e818560208601610a05565b610a7781610a38565b840191505092915050565b60006020820190508181036000830152610a9c8184610a49565b905092915050565b600080fd5b600073ffffffffffffffffffffffffffffffffffffffff82169050919050565b6000610ad482610aa9565b9050919050565b610ae481610ac9565b8114610aef57600080fd5b50565b600081359050610b0181610adb565b92915050565b600060208284031215610b1d57610b1c610aa4565b5b6000610b2b84828501610af2565b91505092915050565b6000819050919050565b610b4781610b34565b82525050565b6000602082019050610b626000830184610b3e565b92915050565b60008115159050919050565b610b7d81610b68565b82525050565b6000602082019050610b986000830184610b74565b92915050565b610ba781610ac9565b82525050565b6000602082019050610bc26000830184610b9e565b92915050565b6000819050919050565b6000610bed610be8610be384610aa9565b610bc8565b610aa9565b9050919050565b6000610bff82610bd2565b9050919050565b6000610c1182610bf4565b9050919050565b610c2181610c06565b82525050565b6000602082019050610c3c6000830184610c18565b92915050565b610c4b81610b34565b8114610c5657600080fd5b50565b600081359050610c6881610c42565b92915050565b600060208284031215610c8457610c83610aa4565b5b6000610c9284828501610c59565b91505092915050565b7f4e487b7100000000000000000000000000000000000000000000000000000000600052602260045260246000fd5b60006002820490506001821680610ce257607f821691505b60208210811415610cf657610cf5610c9b565b5b50919050565b7f63616c6c6572206d75737420626520746865206f776e65720000000000000000600082015250565b6000610d326018836109f4565b9150610d3d82610cfc565b602082019050919050565b60006020820190508181036000830152610d6181610d25565b9050919050565b7f4e487b7100000000000000000000000000000000000000000000000000000000600052603260045260246000fd5b6000604082019050610dac6000830185610b9e565b610db96020830184610b3e565b9392505050565b610dc981610b68565b8114610dd457600080fd5b50565b600081519050610de681610dc0565b92915050565b600060208284031215610e0257610e01610aa4565b5b6000610e1084828501610dd7565b91505092915050565b7f4e487b7100000000000000000000000000000000000000000000000000000000600052601160045260246000fd5b6000610e5382610b34565b91507fffffffffffffffffffffffffffffffffffffffffffffffffffffffffffffffff821415610e8657610e85610e19565b5b600182019050919050565b6000610e9c82610b34565b9150610ea783610b34565b9250827fffffffffffffffffffffffffffffffffffffffffffffffffffffffffffffffff03821115610edc57610edb610e19565b5b82820190509291505056fea2646970667358221220cfcaa27fb7e33e206cf7015f13d2514d0352cbea996f7761ad0004f602fb404e64736f6c634300080a0033",
  "immutableReferences": {},
  "source": "pragma solidity >=0.4.22 <0.9.0;\n\nimport \"./AceToken.sol\";\n\n\ncontract TokenFarm {\n    string public name = \"Dapp Token Farm\";\n    address public owner;\n    AceToken public aceToken;\n\n    address[] public stakers;\n    mapping(address => uint) public stakingBalance;\n    mapping(address => bool) public hasStaked;\n    mapping(address => bool) public isStaking;\n\n    constructor(AceToken _aceToken) {\n        aceToken = _aceToken;\n        owner = msg.sender;\n    }\n\n\n    // Issuing Tokens\n    function issueTokens() public {\n        // Only owner can call this function\n        require(msg.sender == owner, \"caller must be the owner\");\n\n        // Issue tokens to all stakers\n        for (uint i=0; i<stakers.length; i++) {\n            address recipient = stakers[i];\n            uint balance = stakingBalance[recipient];\n            if(balance > 0) {\n                aceToken.transfer(recipient, balance);\n            }\n        }\n    }\n\n    // Unstaking ETH from Contract\n    function sendEther() public {\n        uint ethBalance = stakingBalance[msg.sender];\n        stakingBalance[msg.sender] = 0;\n        payable(msg.sender).transfer(ethBalance);\n\n        // Reset staking balance\n        stakingBalance[msg.sender] = 0;\n\n        // Update staking status\n        isStaking[msg.sender] = false;\n    }\n\n    // Staking ETH into Contract\n    function recieveEther() external payable {\n        stakingBalance[msg.sender] += msg.value;\n\n        // Add user to stakers array *only* if they haven't staked already\n        if(!hasStaked[msg.sender]) {\n            stakers.push(msg.sender);\n        }\n\n        // Update staking status\n        isStaking[msg.sender] = true;\n        hasStaked[msg.sender] = true;\n\n        // Issue Token Rewards\n        aceToken.transfer(msg.sender, msg.value);\n    }\n    \n    function showBalance() public view returns(uint) {\n        return stakingBalance[msg.sender];\n    }\n}\n",
  "sourcePath": "/home/avj17/Consensys/Final Project/Testing/src/contracts/TokenFarm.sol",
  "compiler": {
    "name": "solc",
    "version": "0.8.10+commit.fc410830.Emscripten.clang"
  },
  "schemaVersion": "3.4.3",
  "updatedAt": "2021-11-24T09:37:57.009Z",
  "networkType": "ethereum",
  "devdoc": {
    "kind": "dev",
    "methods": {},
    "version": 1
  },
  "userdoc": {
    "kind": "user",
    "methods": {},
    "version": 1
  }
}