{
  "contractName": "TokenFarm",
  "abi": [
    {
      "inputs": [
        {
          "internalType": "contract AceToken",
          "name": "_aceToken",
          "type": "address"
        }
      ],
      "stateMutability": "nonpayable",
      "type": "constructor"
    },
    {
      "inputs": [],
      "name": "aceToken",
      "outputs": [
        {
          "internalType": "contract AceToken",
          "name": "",
          "type": "address"
        }
      ],
      "stateMutability": "view",
      "type": "function",
      "constant": true
    },
    {
      "inputs": [
        {
          "internalType": "address",
          "name": "",
          "type": "address"
        }
      ],
      "name": "hasStaked",
      "outputs": [
        {
          "internalType": "bool",
          "name": "",
          "type": "bool"
        }
      ],
      "stateMutability": "view",
      "type": "function",
      "constant": true
    },
    {
      "inputs": [
        {
          "internalType": "address",
          "name": "",
          "type": "address"
        }
      ],
      "name": "isStaking",
      "outputs": [
        {
          "internalType": "bool",
          "name": "",
          "type": "bool"
        }
      ],
      "stateMutability": "view",
      "type": "function",
      "constant": true
    },
    {
      "inputs": [],
      "name": "name",
      "outputs": [
        {
          "internalType": "string",
          "name": "",
          "type": "string"
        }
      ],
      "stateMutability": "view",
      "type": "function",
      "constant": true
    },
    {
      "inputs": [],
      "name": "owner",
      "outputs": [
        {
          "internalType": "address",
          "name": "",
          "type": "address"
        }
      ],
      "stateMutability": "view",
      "type": "function",
      "constant": true
    },
    {
      "inputs": [
        {
          "internalType": "uint256",
          "name": "",
          "type": "uint256"
        }
      ],
      "name": "stakers",
      "outputs": [
        {
          "internalType": "address",
          "name": "",
          "type": "address"
        }
      ],
      "stateMutability": "view",
      "type": "function",
      "constant": true
    },
    {
      "inputs": [
        {
          "internalType": "address",
          "name": "",
          "type": "address"
        }
      ],
      "name": "stakingBalance",
      "outputs": [
        {
          "internalType": "uint256",
          "name": "",
          "type": "uint256"
        }
      ],
      "stateMutability": "view",
      "type": "function",
      "constant": true
    },
    {
      "inputs": [],
      "name": "issueTokens",
      "outputs": [],
      "stateMutability": "nonpayable",
      "type": "function"
    },
    {
      "inputs": [],
      "name": "sendEther",
      "outputs": [],
      "stateMutability": "nonpayable",
      "type": "function"
    },
    {
      "inputs": [],
      "name": "recieveEther",
      "outputs": [],
      "stateMutability": "payable",
      "type": "function",
      "payable": true
    },
    {
      "inputs": [],
      "name": "showBalance",
      "outputs": [
        {
          "internalType": "uint256",
          "name": "",
          "type": "uint256"
        }
      ],
      "stateMutability": "view",
      "type": "function",
      "constant": true
    }
  ],
  "bytecode": "0x60806040526040518060400160405280600f81526020017f4461707020546f6b656e204661726d000000000000000000000000000000000081525060009080519060200190620000519291906200010e565b503480156200005f57600080fd5b5060405162001325380380620013258339818101604052810190620000859190620001d5565b80600260006101000a81548173ffffffffffffffffffffffffffffffffffffffff021916908373ffffffffffffffffffffffffffffffffffffffff16021790555033600160006101000a81548173ffffffffffffffffffffffffffffffffffffffff021916908373ffffffffffffffffffffffffffffffffffffffff16021790555050620002c8565b8280546200011c9062000249565b90600052602060002090601f0160209004810192826200014057600085556200018c565b82601f106200015b57805160ff19168380011785556200018c565b828001600101855582156200018c579182015b828111156200018b5782518255916020019190600101906200016e565b5b5090506200019b91906200019f565b5090565b5b80821115620001ba576000816000905550600101620001a0565b5090565b600081519050620001cf81620002ae565b92915050565b600060208284031215620001e857600080fd5b6000620001f884828501620001be565b91505092915050565b60006200020e8262000229565b9050919050565b6000620002228262000201565b9050919050565b600073ffffffffffffffffffffffffffffffffffffffff82169050919050565b600060028204905060018216806200026257607f821691505b602082108114156200027957620002786200027f565b5b50919050565b7f4e487b7100000000000000000000000000000000000000000000000000000000600052602260045260246000fd5b620002b98162000215565b8114620002c557600080fd5b50565b61104d80620002d86000396000f3fe60806040526004361061009c5760003560e01c806381b2d07b1161006457806381b2d07b146101745780638da5cb5b1461019f5780638f4062d7146101ca578063958285a1146101d4578063c93c8f34146101ff578063fd5e6dd11461023c5761009c565b806306fdde03146100a15780630e29df22146100cc57806345bc78ab146100e357806360ab5852146101205780636f49712b14610137575b600080fd5b3480156100ad57600080fd5b506100b6610279565b6040516100c39190610cbf565b60405180910390f35b3480156100d857600080fd5b506100e1610307565b005b3480156100ef57600080fd5b5061010a60048036038101906101059190610aec565b6104b4565b6040516101179190610d41565b60405180910390f35b34801561012c57600080fd5b506101356104cc565b005b34801561014357600080fd5b5061015e60048036038101906101599190610aec565b6106eb565b60405161016b9190610c89565b60405180910390f35b34801561018057600080fd5b5061018961070b565b6040516101969190610d41565b60405180910390f35b3480156101ab57600080fd5b506101b4610752565b6040516101c19190610c45565b60405180910390f35b6101d2610778565b005b3480156101e057600080fd5b506101e9610a28565b6040516101f69190610ca4565b60405180910390f35b34801561020b57600080fd5b5061022660048036038101906102219190610aec565b610a4e565b6040516102339190610c89565b60405180910390f35b34801561024857600080fd5b50610263600480360381019061025e9190610b3e565b610a6e565b6040516102709190610c45565b60405180910390f35b6000805461028690610e6d565b80601f01602080910402602001604051908101604052809291908181526020018280546102b290610e6d565b80156102ff5780601f106102d4576101008083540402835291602001916102ff565b820191906000526020600020905b8154815290600101906020018083116102e257829003601f168201915b505050505081565b6000600460003373ffffffffffffffffffffffffffffffffffffffff1673ffffffffffffffffffffffffffffffffffffffff1681526020019081526020016000205411610389576040517f08c379a000000000000000000000000000000000000000000000000000000000815260040161038090610d01565b60405180910390fd5b6000600460003373ffffffffffffffffffffffffffffffffffffffff1673ffffffffffffffffffffffffffffffffffffffff1681526020019081526020016000205490506000600460003373ffffffffffffffffffffffffffffffffffffffff1673ffffffffffffffffffffffffffffffffffffffff168152602001908152602001600020819055506000600660003373ffffffffffffffffffffffffffffffffffffffff1673ffffffffffffffffffffffffffffffffffffffff16815260200190815260200160002060006101000a81548160ff0219169083151502179055503373ffffffffffffffffffffffffffffffffffffffff166108fc829081150290604051600060405180830381858888f193505050501580156104b0573d6000803e3d6000fd5b5050565b60046020528060005260406000206000915090505481565b600160009054906101000a900473ffffffffffffffffffffffffffffffffffffffff1673ffffffffffffffffffffffffffffffffffffffff163373ffffffffffffffffffffffffffffffffffffffff161461055c576040517f08c379a000000000000000000000000000000000000000000000000000000000815260040161055390610ce1565b60405180910390fd5b60005b6003805490508110156106e8576000600382815481106105a8577f4e487b7100000000000000000000000000000000000000000000000000000000600052603260045260246000fd5b9060005260206000200160009054906101000a900473ffffffffffffffffffffffffffffffffffffffff1690506000600460008373ffffffffffffffffffffffffffffffffffffffff1673ffffffffffffffffffffffffffffffffffffffff16815260200190815260200160002054905060008111156106d357600260009054906101000a900473ffffffffffffffffffffffffffffffffffffffff1673ffffffffffffffffffffffffffffffffffffffff1663a9059cbb83836040518363ffffffff1660e01b815260040161067f929190610c60565b602060405180830381600087803b15801561069957600080fd5b505af11580156106ad573d6000803e3d6000fd5b505050506040513d601f19601f820116820180604052508101906106d19190610b15565b505b505080806106e090610e9f565b91505061055f565b50565b60066020528060005260406000206000915054906101000a900460ff1681565b6000600460003373ffffffffffffffffffffffffffffffffffffffff1673ffffffffffffffffffffffffffffffffffffffff16815260200190815260200160002054905090565b600160009054906101000a900473ffffffffffffffffffffffffffffffffffffffff1681565b600034116107bb576040517f08c379a00000000000000000000000000000000000000000000000000000000081526004016107b290610d21565b60405180910390fd5b34600460003373ffffffffffffffffffffffffffffffffffffffff1673ffffffffffffffffffffffffffffffffffffffff168152602001908152602001600020600082825461080a9190610d78565b92505081905550600560003373ffffffffffffffffffffffffffffffffffffffff1673ffffffffffffffffffffffffffffffffffffffff16815260200190815260200160002060009054906101000a900460ff166108c6576003339080600181540180825580915050600190039060005260206000200160009091909190916101000a81548173ffffffffffffffffffffffffffffffffffffffff021916908373ffffffffffffffffffffffffffffffffffffffff1602179055505b6001600660003373ffffffffffffffffffffffffffffffffffffffff1673ffffffffffffffffffffffffffffffffffffffff16815260200190815260200160002060006101000a81548160ff0219169083151502179055506001600560003373ffffffffffffffffffffffffffffffffffffffff1673ffffffffffffffffffffffffffffffffffffffff16815260200190815260200160002060006101000a81548160ff021916908315150217905550600260009054906101000a900473ffffffffffffffffffffffffffffffffffffffff1673ffffffffffffffffffffffffffffffffffffffff1663a9059cbb33346040518363ffffffff1660e01b81526004016109d3929190610c60565b602060405180830381600087803b1580156109ed57600080fd5b505af1158015610a01573d6000803e3d6000fd5b505050506040513d601f19601f82011682018060405250810190610a259190610b15565b50565b600260009054906101000a900473ffffffffffffffffffffffffffffffffffffffff1681565b60056020528060005260406000206000915054906101000a900460ff1681565b60038181548110610a7e57600080fd5b906000526020600020016000915054906101000a900473ffffffffffffffffffffffffffffffffffffffff1681565b600081359050610abc81610fd2565b92915050565b600081519050610ad181610fe9565b92915050565b600081359050610ae681611000565b92915050565b600060208284031215610afe57600080fd5b6000610b0c84828501610aad565b91505092915050565b600060208284031215610b2757600080fd5b6000610b3584828501610ac2565b91505092915050565b600060208284031215610b5057600080fd5b6000610b5e84828501610ad7565b91505092915050565b610b7081610dce565b82525050565b610b7f81610de0565b82525050565b610b8e81610e16565b82525050565b6000610b9f82610d5c565b610ba98185610d67565b9350610bb9818560208601610e3a565b610bc281610f46565b840191505092915050565b6000610bda601883610d67565b9150610be582610f57565b602082019050919050565b6000610bfd601483610d67565b9150610c0882610f80565b602082019050919050565b6000610c20601a83610d67565b9150610c2b82610fa9565b602082019050919050565b610c3f81610e0c565b82525050565b6000602082019050610c5a6000830184610b67565b92915050565b6000604082019050610c756000830185610b67565b610c826020830184610c36565b9392505050565b6000602082019050610c9e6000830184610b76565b92915050565b6000602082019050610cb96000830184610b85565b92915050565b60006020820190508181036000830152610cd98184610b94565b905092915050565b60006020820190508181036000830152610cfa81610bcd565b9050919050565b60006020820190508181036000830152610d1a81610bf0565b9050919050565b60006020820190508181036000830152610d3a81610c13565b9050919050565b6000602082019050610d566000830184610c36565b92915050565b600081519050919050565b600082825260208201905092915050565b6000610d8382610e0c565b9150610d8e83610e0c565b9250827fffffffffffffffffffffffffffffffffffffffffffffffffffffffffffffffff03821115610dc357610dc2610ee8565b5b828201905092915050565b6000610dd982610dec565b9050919050565b60008115159050919050565b600073ffffffffffffffffffffffffffffffffffffffff82169050919050565b6000819050919050565b6000610e2182610e28565b9050919050565b6000610e3382610dec565b9050919050565b60005b83811015610e58578082015181840152602081019050610e3d565b83811115610e67576000848401525b50505050565b60006002820490506001821680610e8557607f821691505b60208210811415610e9957610e98610f17565b5b50919050565b6000610eaa82610e0c565b91507fffffffffffffffffffffffffffffffffffffffffffffffffffffffffffffffff821415610edd57610edc610ee8565b5b600182019050919050565b7f4e487b7100000000000000000000000000000000000000000000000000000000600052601160045260246000fd5b7f4e487b7100000000000000000000000000000000000000000000000000000000600052602260045260246000fd5b6000601f19601f8301169050919050565b7f63616c6c6572206d75737420626520746865206f776e65720000000000000000600082015250565b7f496e73756666696369656e742062616c616e6365000000000000000000000000600082015250565b7f496e76616c696420616d6f756e7420666f72207374616b696e67000000000000600082015250565b610fdb81610dce565b8114610fe657600080fd5b50565b610ff281610de0565b8114610ffd57600080fd5b50565b61100981610e0c565b811461101457600080fd5b5056fea2646970667358221220c105281d9bea758c879646728e0d32a5793a8c800f89749b811ef0896eb02ccb64736f6c63430008020033",
  "immutableReferences": {},
  "source": "// SPDX-License-Identifier: MIT\npragma solidity 0.8.2;\n\nimport \"./AceToken.sol\";\n\n\n/// @title Contract for Yield Farming\n/// @author Alfred Varghese Jose\n/// @notice Allows users to stake their crypto assets and get ACE Token Rewards\n/// @dev ETH is the crypto asset used currently for staking\ncontract TokenFarm {\n    string public name = \"Dapp Token Farm\";\n    address public owner;\n    AceToken public aceToken;\n\n    /// @notice List of all the current investors\n    address[] public stakers;\n\n    /// @notice Mapping of investor address and their staking balance\n    mapping(address => uint) public stakingBalance;\n\n    /// @notice Mapping of investors staking status\n    mapping(address => bool) public hasStaked;\n    mapping(address => bool) public isStaking;\n\n    /// @param _aceToken Reference to an AceToken instance used for initializing TokenFarm contract\n    /// @dev Owner variable set as contract creator for future use\n    constructor(AceToken _aceToken) {\n        aceToken = _aceToken;\n        owner = msg.sender;\n    }\n\n\n    /// @notice Allows contract owners to issue dividends for investors\n    /// @dev Addresses in stakers array will recieve dividends equal to their current staking balance\n    function issueTokens() public {\n        /// @notice Only owner can call this function\n        require(msg.sender == owner, \"caller must be the owner\");\n\n        /// @notice Issue dividends to all stakers\n        for (uint i=0; i<stakers.length; i++) {\n            address recipient = stakers[i];\n            uint balance = stakingBalance[recipient];\n            if(balance > 0) {\n                aceToken.transfer(recipient, balance);\n            }\n        }\n    }\n\n\n    /// @notice Allows users to unstake their crypto assets\n    /// @dev Entire ETH staking balance is paid back to the investor\n    function sendEther() public {\n        /// @notice Staking balance amount should be greater than 0\n        require(stakingBalance[msg.sender] > 0, \"Insufficient balance\");\n\n        uint ethBalance = stakingBalance[msg.sender];\n\n        /// @notice Update staking status\n        stakingBalance[msg.sender] = 0;\n        isStaking[msg.sender] = false;\n\n        /// @notice Send ETH back to investor\n        payable(msg.sender).transfer(ethBalance);\n\n    }\n\n\n    /// @notice Allows users to stake their crypto assets\n    /// @dev Same value of ACE Tokens are rewarded to the investor\n    function recieveEther() external payable {\n        /// @notice Staking amount should be greater than 0\n        require(msg.value > 0, \"Invalid amount for staking\");\n\n        stakingBalance[msg.sender] += msg.value;\n\n        /// @notice Add user to stakers array only if they haven't staked already\n        if(!hasStaked[msg.sender]) {\n            stakers.push(msg.sender);\n        }\n\n        /// @notice Update staking status\n        isStaking[msg.sender] = true;\n        hasStaked[msg.sender] = true;\n\n        /// @notice Issue Token Rewards\n        aceToken.transfer(msg.sender, msg.value);\n    }\n    \n\n    /// @notice Returns the staking balance of an investor\n    /// @return Staking balance of the investor\n    function showBalance() public view returns(uint) {\n        return stakingBalance[msg.sender];\n    }\n}\n",
  "sourcePath": "/home/avj17/Consensys/Final Project/blockchain-developer-bootcamp-final-project/src/contracts/TokenFarm.sol",
  "compiler": {
    "name": "solc",
    "version": "0.8.2+commit.661d1103.Emscripten.clang"
  },
  "schemaVersion": "3.4.3",
  "updatedAt": "2021-11-30T07:59:26.759Z",
  "networkType": "ethereum",
  "devdoc": {
    "author": "Alfred Varghese Jose",
    "details": "ETH is the crypto asset used currently for staking",
    "kind": "dev",
    "methods": {
      "constructor": {
        "details": "Owner variable set as contract creator for future use",
        "params": {
          "_aceToken": "Reference to an AceToken instance used for initializing TokenFarm contract"
        }
      },
      "issueTokens()": {
        "details": "Addresses in stakers array will recieve dividends equal to their current staking balance"
      },
      "recieveEther()": {
        "details": "Same value of ACE Tokens are rewarded to the investor"
      },
      "sendEther()": {
        "details": "Entire ETH staking balance is paid back to the investor"
      },
      "showBalance()": {
        "returns": {
          "_0": "Staking balance of the investor"
        }
      }
    },
    "title": "Contract for Yield Farming",
    "version": 1
  },
  "userdoc": {
    "kind": "user",
    "methods": {
      "hasStaked(address)": {
        "notice": "Mapping of investors staking status"
      },
      "issueTokens()": {
        "notice": "Allows contract owners to issue dividends for investors"
      },
      "recieveEther()": {
        "notice": "Allows users to stake their crypto assets"
      },
      "sendEther()": {
        "notice": "Allows users to unstake their crypto assets"
      },
      "showBalance()": {
        "notice": "Returns the staking balance of an investor"
      },
      "stakers(uint256)": {
        "notice": "List of all the current investors"
      },
      "stakingBalance(address)": {
        "notice": "Mapping of investor address and their staking balance"
      }
    },
    "notice": "Allows users to stake their crypto assets and get ACE Token Rewards",
    "version": 1
  }
}